:020000040800F2
:1000000000A000209110000815100008171000082B
:10001000191000081B1000081D1000080000000047
:100020000000000000000000000000001F10000899
:10003000211000080000000023100008251000080F
:10004000E1100008E1100008E1100008E1100008CC
:10005000E1100008E1100008E1100008E1100008BC
:10006000E1100008E1100008E1100008E1100008AC
:10007000E1100008E1100008E1100008E11000089C
:10008000E1100008E1100008E1100008E11000088C
:10009000E1100008E1100008E1100008E11000087C
:1000A000E1100008E1100008E1100008E11000086C
:1000B0002D100008E1100008E1100008E110000810
:1000C000E1100008E1100008E1100008E11000084C
:1000D000E110000859100008E1100008E1100008C4
:1000E00069100008E1100008E1100008E1100008A4
:1000F000E1100008E1100008E1100008E11000081C
:10010000000000000000000000000000E1100008F6
:10011000E1100008E1100008E1100008E1100008FB
:10012000E1100008E1100008E1100008E1100008EB
:10013000E1100008E11000080000000000000000CD
:10014000E1100008E1100008E110000800000000C4
:10015000000000000000000000000000000000009F
:100160000000000000000000E1100008E11000089D
:10017000E110000800000000000000000000000086
:0801800000000000E11000087E
:1001C00090F800F06DE9024520F007016FF0000C97
:1001D00010F0070491F820F040F049804FF000043F
:1001E0006FF00700D1E9002391F840F000F108001A
:1001F00082FA4CF2A4FA8CF283FA4CF3A2FA8CF352
:100200004BBBD1E9022382FA4CF200F10800A4FAB8
:100210008CF283FA4CF3A2FA8CF3E3B9D1E904230C
:1002200082FA4CF200F10800A4FA8CF283FA4CF343
:10023000A2FA8CF37BB9D1E9062301F1200182FAFD
:100240004CF200F10800A4FA8CF283FA4CF3A2FA03
:100250008CF3002BC6D0002A04BF04301A4612BA11
:10026000B2FA82F2FDE8024500EBD2007047D1E914
:10027000002304F00305C4F100004FEAC50514F0A3
:10028000040F91F840F00CFA05F562EA05021CBF74
:1002900063EA050362464FF00004A9E70348044BF4
:1002A000834202D0034B03B1184770477C01002002
:1002B0007C010020000000000548064B1B1AD90FE6
:1002C00001EBA301491002D0034B03B1184770475B
:1002D0007C0100207C0100200000000010B5064CCD
:1002E000237843B9FFF7DAFF044B13B10448AFF3A7
:1002F00000800123237010BD7C010020000000005D
:10030000D032000808B5054B1BB105490548AFF3CD
:100310000080BDE80840FFF7CFBF00BF000000002D
:1003200080010020D0320008002039E0013328E0AD
:100330000130032801DC002324E030BC7047013386
:10034000132B2CDC00EB8302184951F82220012AE0
:1003500002D0B2F1FF3FF2D130B453B1132B08D029
:100360009918124D00EB810155F82140144445F8CD
:10037000214000EB83010D4C002544F82150012A57
:10038000D4D00133132BD3DC00EB8302074951F89F
:100390002220012AE1D0B2F1FF3FDED0F1E70130A7
:1003A000032801DC0023CBE7704700BF00000020DA
:1003B00008B5FFF7B9FF08BD014B01221A7070475D
:1003C0009801002008B5034B1B7803B108BDFFF767
:1003D000F3FFFBE79801002010B5044600F0C6FECD
:1003E0001F4B18601F4B1B68C31AC72B28D91D4B06
:1003F0001860B4F5804F28D00FD8B4F5805F19D0BD
:10040000B4F5005F1CD14FF40051174801F070F8AB
:10041000B0B11648FFF7D6FF12E0B4F5004F0FD188
:100420004FF40041104801F063F848B11048FFF75D
:10043000C9FF05E04FF480510B4801F059F800B9AD
:1004400010BD0C48FFF7BEFFFAE74FF480410648A5
:1004500001F04EF80028F3D00748FFF7B3FFEFE7AD
:100460009C010020A001002000040048EC3200089C
:10047000F4320008E8320008F032000800B585B018
:100480004FF4804303934FF4005302934FF480538F
:1004900001934FF4006300934FF480634FF40072B4
:1004A0004FF480710A4800F055FA0421142000F03E
:1004B0003BF90849002000F094FA0749012000F0B8
:1004C00090FA0649022000F08CFA05B05DF804FBB2
:1004D000000C00486001002058010020500100205D
:1004E00086B02D4B1B68B3F1904F19D02B4A934225
:1004F00025D02B4A93422DD02A4A934235D02A4AFE
:1005000093423DD0294A934217D1294B5A6942F46C
:1005100080025A615B6903F480030593059B0CE03C
:1005200003F1784303F504335A6942F400325A6107
:100530005B6903F400330093009B06B070471C4BCB
:100540005A6942F480225A615B6903F48023019363
:10055000019BF2E7164B5A6942F400225A615B692B
:1005600003F400230293029BE7E7114B5A6942F41C
:1005700080125A615B6903F480130393039BDCE7E9
:100580000B4B5A6942F400125A615B6903F4001381
:100590000493049BD1E700BFAC0100200004004895
:1005A00000080048000C00480010004800140048F3
:1005B0000010024010B4034C20706170A270E37010
:1005C00010BC7047A401002038B50D4D0D4C002221
:1005D0002988206800F093FF012000F0CDFD012262
:1005E0002988206800F08BFF012000F0C5FD002263
:1005F0002988206800F083FF012000F0BDFD38BD90
:10060000C0010020AC01002038B5054600240BE0F5
:1006100045FA04F202F00102064B33F81410064BBF
:10062000186800F06CFF0134032CF1DDFFF7CCFFFC
:1006300038BD00BFB0010020AC01002038B5054630
:1006400000240BE045FA04F202F00102064B33F8F5
:100650001410064B186800F052FF0134072CF1DD2E
:10066000FFF7B2FF38BD00BFB0010020AC01002091
:1006700010B504460A46104B1988104B186800F054
:100680003EFF0F4B1988FF2908D10E4B1B7813F042
:10069000100F09D02046FFF7D1FF10BD0022074BF5
:1006A000186800F02CFFF0E72009FFF7ADFF2046A7
:1006B000FFF7AAFFF1E700BFC4010020AC01002052
:1006C000C2010020AB01002008B500210120FFF786
:1006D000CFFF022000F050FD08BD000008B503293F
:1006E00000D90321074B1B788B4201D8013BD9B2BB
:1006F000054B5B5C184460F07F000021C0B2FFF73F
:10070000B7FF08BDA8010020A401002008B5054BD3
:10071000187840F004021A70002140F00C00FFF736
:10072000A7FF08BDAA010020F0B587B002460C461D
:10073000012904D95D490B7843F008030B705C4B29
:100740001C7002F1400340210020FFF733FF594B9A
:100750001B780BB1012C65D0FFF7C2FE0323049375
:1007600001230293544B1B78002B61D0534B1C8800
:1007700058889988DB88524A1288524D2D882A431E
:10078000514D2D882A43224302430A4313439BB20F
:1007900001934E4C01A9206800F0C2FD322000F008
:1007A000EBFC0022464B1988206800F0A8FE0022CE
:1007B000454B1988206800F0A2FE424B1988FF299A
:1007C00056D13A4B187810F0100F56D10320FFF78E
:1007D0001BFF052000F0D0FC0320FFF715FF0520CC
:1007E00000F0CAFC0320FFF70FFF012000F0C4FC5B
:1007F0000220FFF709FF2D4B1878002140F0200060
:10080000FFF736FF324B04221A70FFF77FFFFFF726
:100810005BFF304B02221A7000210620FFF728FFF1
:1008200007B0F0BD214A137843F00403137093E737
:10083000224B1E885D88B3F804E0B3F806C01C891B
:1008400058899989DB891E4A12881E4F3F883A438E
:100850001D4F3F883A4332432A434EEA02024CEA94
:100860000202224302430A4313439BB2019390E7DF
:100870000022206800F043FEA3E7002140F02000A2
:10088000FFF7F6FE052000F077FC084C20780021E9
:1008900040F02000FFF7ECFE012000F06DFC207816
:1008A000002140F02000FFF7E3FEA4E7AB010020A9
:1008B000A8010020C601002068010020B00100202E
:1008C000C4010020C2010020C0010020AC010020B2
:1008D000AA010020A901002010B5184C2280184A56
:1008E0001380BDF80820174B1A80174B1960174B5F
:1008F000BDF80C201A80BDF810205A80BDF81420D5
:100900009A80BDF81820DA80BDF81C201A81BDF845
:1009100020205A81BDF824209A81BDF82820DA8150
:1009200038B10B4B00221A7002211020FFF7FCFE99
:1009300010BD074B10221A70F6E700BFC40100205B
:10094000C2010020C0010020AC010020B001002045
:10095000AB010020F0B58BB08446BDF84040BDF837
:100960004450BDF84860BDF84C701248007888B11A
:100970000020089007900690059004970396029532
:100980000194009313460A4661460120FFF7A4FF35
:100990000BB0F0BD002008900790069005900497DA
:1009A000039602950194009313460A466146FFF7A9
:1009B00093FFEDE76801002070B580B10446FFF7B2
:1009C000FFFB002506E0012114F8010BFFF750FEA4
:1009D00001353046461E0028F5D1284670BD002559
:1009E000FBE738B50D4600F00700C000002140F0DD
:1009F0004000FFF73DFE002404E00121285DFFF7E1
:100A000037FE0134072CF8DD38BD0000012808D07E
:100A1000032808D0B0F1FF3F01D0044870470448D4
:100A20007047044870470448704700BF043300080B
:100A3000FC320008F8320008003300082DE9F041CC
:100A40008AB0002405940694079408940994404BB6
:100A50005A6942F400125A615A6902F40012009273
:100A6000009A5A6942F400225A615A6902F400223B
:100A70000192019A5A6942F480025A615A6902F459
:100A800080020292029A5A6942F400325A615A690B
:100A900002F400320392039A5A6942F480225A61A6
:100AA0005B6903F480230493049BDFF8A88022464B
:100AB0004FF60871404600F022FD274F22460421E0
:100AC000384600F01CFD254E22464FF400613046AA
:100AD00000F015FD4FF60873059301250695079460
:100AE000089405A9404600F01BFC042305930695D5
:100AF0000794089405A9384600F012FC0595069461
:100B0000079405A94FF0904000F00AFC4FF40063F1
:100B1000059306950794089405A9304600F000FC5B
:100B20004FF4704305934FF4881306930223079301
:100B300005A9304600F0F4FB22462946282000F0A3
:100B400075FB282000F082FB0AB0BDE8F08100BFF1
:100B5000001002400010004800080048000400484F
:100B600008B5FFF739FC08BD72B6FEE708B51148B5
:100B7000114B0360114B4360002383600122C2606C
:100B8000036143618361C361036200F0CBFC50B930
:100B90000021084800F024FD38B90021054800F084
:100BA0004DFD20B908BDFFF7DFFFFFF7DDFFFFF7C1
:100BB000DBFF00BFE8050020005400400E090020C4
:100BC00008B50F480F4B03604FF482734360002356
:100BD00083604FF44072C260036143614FF400725E
:100BE00082610822C2610362436283620721C1629B
:100BF0000363426301F03EFB00B908BDFFF7B4FF99
:100C0000840500200030014008B50848084B036007
:100C1000082343600223836003610023836103622E
:100C200000F038FD00B908BDFFF79EFFC8010020A5
:100C3000005C004000B589B000230493059306933F
:100C4000079301930293039314484FF0804202608C
:100C500042F20F724260836040F65F12C26003612D
:100C6000836101F019FD90B94FF48053049304A9F6
:100C70000A4801F04DFD60B900230193039301A9D7
:100C8000064801F0C5FD30B909B05DF804FBFFF777
:100C90006BFFFFF769FFFFF767FF00BF3805002014
:100CA00008B50B480B4B03604FF416534360002309
:100CB0008360C36003610C2242618361C36103628C
:100CC000436202F0D2F900B908BDFFF74DFF00BF43
:100CD000B40400200038014000B59FB02822002154
:100CE00014A802F00FFA00210F91109111911291A6
:100CF00013913C22684602F005FA032314934FF443
:100D0000A0231593012318931023199302231B93F7
:100D10004FF480331C934FF480131D9314A800F0FC
:100D200023FDE8B90F230F9302231093002311939F
:100D30004FF480621292139301210FA801F064F81E
:100D400080B90A4B00930023029307934FF480036A
:100D50000E93684601F05EF930B91FB05DF804FBF0
:100D6000FFF702FFFFF700FFFFF7FEFE2100020082
:100D700008B500F0DDF9FFF7AFFFFFF75FFEFFF703
:100D8000F5FEFFF71DFFFFF73FFFFFF753FFFFF7EC
:100D900087FFFFF773FB024801F00EFBFEE700BF81
:100DA0003805002000B583B00C4B9A6942F001026F
:100DB0009A619A6902F001020092009ADA6942F09F
:100DC0008052DA61DB6903F080530193019B0620B6
:100DD00000F01AFA03B05DF804FB00BF00100240F7
:100DE00010B588B0002303930493059306930793EB
:100DF0000268134B9A4201D008B010BD114C6369D0
:100E000043F480236361636903F480230193019BAE
:100E1000C023039312230493012305930323069312
:100E20000423079303A9084800F07AFAE36943F41E
:100E30000013E361E36903F400130293029BDBE711
:100E400000540040001002400004004800B589B082
:100E50000023039304930593069307930268144BAE
:100E60009A4202D009B05DF804FB03F560439A6929
:100E700042F480529A619A6902F480520192019A76
:100E80005A6942F400325A615B6903F400330293F9
:100E9000029BE02303930223049303230693052379
:100EA000079303A94FF0904000F03AFADAE700BF49
:100EB000003001400368B3F1804F00D0704700B5A7
:100EC00083B003F50433DA6942F00102DA61DB69C9
:100ED00003F001030193019B002201211C2000F07B
:100EE000A5F91C2000F0B2F903B05DF804FB000086
:100EF00000B589B0002303930493059306930793E9
:100F00000268174B9A4202D009B05DF804FB03F562
:100F100058439A6942F480429A619A6902F4804285
:100F20000192019A5A6942F400225A615B6903F402
:100F300000230293029B3023039302230493032391
:100F400006930723079303A9064800F0E9F9002256
:100F50000121252000F06AF9252000F077F9D3E778
:100F6000003801400008004810B588B00023039302
:100F700004930593069307930268134B9A4201D09A
:100F800008B010BD114C636943F4003363616369B9
:100F900003F400330193019B4FF4C05303930223E6
:100FA0000493032306930E23079303A94FF0904065
:100FB00000F0B6F9E36943F40003E361E36903F485
:100FC00000030293029BDBE7005C0040001002403C
:100FD00038B500210846FFF781FB00250CE005EB42
:100FE0008402084B53F82200FFF710FDFFF7E4FCE2
:100FF0000134132CF3DD0135032D01DC0024F8E767
:1010000038BD00BF0000002008B500210846FFF7EA
:10101000CFF908BDFEE7FEE7FEE7FEE7FEE7704713
:101020007047704708B500F095F808BD08B5084846
:1010300001F009FA074A13680133136013F0010F36
:1010400002D0FFF7C5FF08BDFFF7DEFFF9E700BFDD
:10105000380500203406002008B5024801F06AFC7B
:1010600008BD00BFB404002008B54FF4805000F064
:101070004BFA4FF4005000F047FA4FF4804000F074
:1010800043FA4FF4004000F03FFA08BD70470000FB
:10109000DFF834D00D480E490E4A002302E0D45840
:1010A000C4500433C4188C42F9D30B4A0B4C0023B0
:1010B00001E013600432A242FBD3FFF7E7FF02F026
:1010C00073F8FFF755FEFEE700A0002000000020A7
:1010D0007C0100204C3300087C010020D407002054
:1010E000FEE7000010B504460E4B1A784FF47A73F1
:1010F000B3FBF2F30C4A1068B0FBF3F000F0B4F865
:1011000068B90F2C01D901200AE0002221464FF0D6
:10111000FF3000F08BF8054B1C60002000E0012040
:1011200010BD00BF700100206C0100207401002080
:1011300008B5074A136843F010031360032000F05A
:1011400063F80020FFF7CEFFFFF72CFE002008BD5C
:1011500000200240034A1168034B1B780B441360C4
:10116000704700BF3806002070010020014B18684E
:10117000704700BF3806002038B50446FFF7F6FF79
:101180000546B4F1FF3F02D0044B1B781C44FFF727
:10119000EDFF401BA042FAD338BD00BF7001002014
:1011A000002808DB0901C9B200F1604000F5614088
:1011B00080F80013704700F00F000901C9B2014B1D
:1011C0001954704714ED00E000B500F00700C0F1BD
:1011D000070CBCF1040F28BF4FF0040C031D062BB5
:1011E0000FD9C31E4FF0FF3E0EFA0CF021EA0001AA
:1011F00099400EFA03FE22EA0E0241EA02005DF86F
:1012000004FB0023EEE70000074AD36823F4E06301
:101210001B041B0C000200F4E060034343F0BF63B7
:1012200043F40033D360704700ED00E010B504468E
:10123000054BD868C0F30220FFF7C6FF01462046E1
:10124000FFF7AEFF10BD00BF00ED00E0002807DB98
:1012500000F01F02400901239340024A42F8203067
:10126000704700BF00E100E00138B0F1807F0BD291
:101270004FF0E0235861054AF02182F82310002046
:10128000986107221A6170470120704700ED00E065
:10129000034690F82120022A06D00422826300220D
:1012A00080F820200120704701680A6822F00E02B1
:1012B0000A6001680A6822F001020A60026CC06BD1
:1012C000012101FA02F2426083F82110002083F824
:1012D0002000704708B590F82130022B03D004237A
:1012E0008363012008BD0268136823F00E031360B6
:1012F0000268136823F001031360036CC16B0122C1
:1013000002FA03F34B6080F82120002380F820309C
:10131000436B13B198470020E4E70020E2E70000A8
:1013200070B582B0002365E085685E000324B44098
:1013300025EA0405CC68B4402C438460456825EA5E
:101340000C054C68C4F300149C402C43446062E0DC
:10135000DD08083550F8254003F0070C4FEA8C0CE7
:101360004FF00F0E0EFA0CFE24EA0E0E0C6904FA72
:101370000CF444EA0E0440F8254063E0042400E045
:10138000002404FA0EF42C430CF1020C544D45F8E1
:101390002C40544C2568D44325EA0206D1F804C0F9
:1013A0001CF4803F01D042EA05064E4D2E606D6868
:1013B00004EA0506D1F804C01CF4003F01D042EA5B
:1013C0000506484D6E60AD6804EA0506D1F804C014
:1013D0001CF4801F01D042EA0506424DAE60ED6864
:1013E0002C404E6816F4001F01D042EA05043D4A25
:1013F000D46001330A6832FA03F46ED04FF0010C66
:101400000CFA03FC1CEA0202F3D04C6804F003045B
:10141000013C012C88D94C6804F00304032C0CD047
:10142000C4685D004FF0030C0CFA05FC24EA0C0CB8
:101430008C68AC4044EA0C04C4604C6804F00304BB
:10144000022C85D004684FEA430E4FF0030C0CFACF
:101450000EFC24EA0C0C4C6804F0030404FA0EF4AD
:1014600044EA0C0404604C6814F4403FC1D01E4CA4
:10147000A56945F00105A561A46904F00104019482
:10148000019C4FEA930C0CF10205154C54F82550C1
:1014900003F0030E4FEA8E0E0F2404FA0EF425EA31
:1014A0000405B0F1904F3FF46BAF104CA0420ED04A
:1014B00004F58064A0420CD004F58064A0420AD0F8
:1014C00004F58064A0423FF459AF052459E7012494
:1014D00057E7022455E7032453E702B070BD00BF6D
:1014E00000000140000401400010024000040048D8
:1014F0000369194201D001207047002070470AB1EA
:10150000816170478162704708B5054B5B69034292
:1015100000D108BD024B5861FFF722FBF9E700BF7D
:1015200000040140002859D010B5044690F841301D
:10153000002B43D0242384F841302268136823F021
:10154000010313606368226823F0706313612268EB
:10155000936823F400439360E368012B33D0A368BE
:10156000226843F404439360E368022B31D022687D
:10157000536843F0007343F4004353602268D36818
:1015800023F40043D360236962691343A16922688D
:1015900043EA0123D360E369216A22680B431360A5
:1015A0002268136843F00103136000206064202365
:1015B00084F84130206384F8420010BD80F8403048
:1015C000FFF70EFCB6E7A368226843F4004393607C
:1015D000CAE723684FF400625A60C8E701207047E9
:1015E000034690F84120D2B2202A23D190F840201F
:1015F000012A21D0012280F84020242280F84120B5
:101600000068026822F0010202601868026822F491
:1016100080520260186802681143016019680A6804
:1016200042F001020A60202283F84120002083F862
:10163000400070470220704702207047034690F830
:101640004120D2B2202A21D190F84020012A1FD077
:10165000012280F84020242280F84120006802689E
:1016600022F0010202601868026822F4706242EA05
:101670000122026019680A6842F001020A60202211
:1016800083F84120002083F8400070470220704713
:1016900002207047002864D030B587B0044690F827
:1016A000A9323BB1032384F8A932206801F00FFD71
:1016B00000231FE080F8A832FFF756FCF2E75A1C1F
:1016C00002EB820104EBC1010120487002EB8201B0
:1016D00004F8313003EB830104EBC101CB8602EB4C
:1016E000820C04EBCC0C00208CF803008863C863E8
:1016F0000864D3B260688342E1D3002316E003EBB1
:10170000830204EBC202002182F8691182F8683179
:1017100082F86B11C2F87811C2F87C1103EB8302D6
:1017200004EBC202C2F880110133DBB29842E6D862
:10173000A4465CF8105BEE46BCE80F00AEE80F0074
:10174000DCF80030CEF80030231D0ECB284601F027
:10175000C8FC002084F82400012384F8A93207B0D3
:1017600030BD012070470000002800F0FF8270B5F6
:1017700082B00446036813F0010F3BD0B44B5B68A2
:1017800003F00C03042B1ED0B14B5B6803F00C0379
:10179000082B13D06368B3F5803F68D0002B40F06E
:1017A000928003F1804303F504331A6822F48032F7
:1017B0001A601A6822F480221A605DE0A44B5B680C
:1017C00013F4803FE6D04FF4003393FAA3F3A04B19
:1017D00019684FF4003393FAA3F3B3FA83F303F0D9
:1017E0001F03012202FA03F30B4203D06368002BAC
:1017F00000F0BE82236813F0020F00F0C480944B07
:101800005B6813F00C0F00F09C80914B5B6803F059
:101810000C03082B00F08F802369002B00F0F08070
:10182000012292FAA2F3B3FA83F303F1845303F58E
:1018300084139B001A60FFF799FC0546022393FA74
:10184000A3F3834B1968022393FAA3F3B3FA83F348
:1018500003F01F03012202FA03F30B4240F0C2809F
:10186000FFF784FC401B0228E8D9032089E2784A6C
:10187000136843F480331360754AD36A23F00F036F
:10188000A1680B43D3626368002B36D0FFF76EFC70
:1018900005464FF4003393FAA3F36D4B19684FF4E8
:1018A000003393FAA3F3B3FA83F303F01F03012287
:1018B00002FA03F30B429DD1FFF758FC401B64284A
:1018C000E7D903205DE2B3F5A02F09D0604B1A6879
:1018D00022F480321A601A6822F480221A60CBE760
:1018E00003F18043A3F53C331A6842F480221A6066
:1018F0001A6842F480321A60BEE7FFF737FC0546EB
:101900004FF4003393FAA3F3514B19684FF40033AB
:1019100093FAA3F3B3FA83F303F01F03012202FA4D
:1019200003F30B423FF466AFFFF720FC401B642833
:10193000E6D9032025E2464B5B6813F4803F7FF431
:101940006BAF022393FAA3F3414B1968022393FA76
:10195000A3F3B3FA83F303F01F03012202FA03F3A4
:101960000B4203D02369934240F004823848036855
:1019700023F0F8036169F82292FAA2F2B2FA82F235
:1019800091400B430360236813F0080F00F08C8034
:10199000A369002B60D0012191FAA1F2B2FA82F280
:1019A0002C4B13449B001960FFF7E0FB0546022314
:1019B00093FAA3F293FAA3F293FAA3F2244A516A98
:1019C00093FAA3F3B3FA83F303F01F03012202FA9D
:1019D00003F30B4268D1FFF7C9FB401B0228E6D98D
:1019E0000320CEE11A48036823F0F8036169F82266
:1019F00092FAA2F2B2FA82F291400B430360C2E77C
:101A0000012393FAA3F3B3FA83F303F1845303F5A9
:101A100084139B0000221A60FFF7A8FB05460223EF
:101A200093FAA3F30A4B1968022393FAA3F3B3FAC8
:101A300083F303F01F03012202FA03F30B42A2D047
:101A4000FFF794FB401B0228E9D9032099E100BF6E
:101A50000010024020819010012292FAA2F2B2FA04
:101A600082F2B74B13449B0000221A60FFF77EFB03
:101A70000546022393FAA3F293FAA3F293FAA3F290
:101A8000B04A516A93FAA3F3B3FA83F303F01F0346
:101A9000012202FA03F30B4206D0FFF767FB401B5B
:101AA0000228E6D903206CE1236813F0040F00F04C
:101AB000A980A44BDB6913F0805F20D1A14BDA69C8
:101AC00042F08052DA61DB6903F080530193019B9D
:101AD00001259D4B1B6813F4807F12D0E368012B16
:101AE00023D073BB03F1804303F504331A6A22F059
:101AF00001021A621A6A22F004021A621AE0002530
:101B0000E7E7914A136843F480731360FFF72EFBF5
:101B100006468D4B1B6813F4807FDFD1FFF726FB51
:101B2000801B6428F5D903202BE1864A136A43F011
:101B300001031362E368002B3CD0FFF717FB064656
:101B40002EE0052B09D07F4B1A6A22F001021A629F
:101B50001A6A22F004021A62ECE77A4B1A6A42F01F
:101B600004021A621A6A42F001021A62E2E70223D0
:101B700093FAA3F3734B596A022393FAA3F3B3FACC
:101B800083F303F01F03012202FA03F3194238D151
:101B9000FFF7ECFA801B41F28833984200F2EC80A8
:101BA000022393FAA3F293FAA3F3002BDFD0654B41
:101BB000196AE1E7FFF7DAFA064618E0022393FA1A
:101BC000A3F3604B596A022393FAA3F3B3FA83F3A6
:101BD00003F01F03012202FA03F3194211D0FFF7A9
:101BE000C5FA801B41F28833984200F2C780022375
:101BF00093FAA3F293FAA3F3002BDFD0514B196AA7
:101C0000E1E7B5BBE369002B00F0BA804D4A5268AA
:101C100002F00C02082A00F09980022B2FD04FF01E
:101C2000807393FAA3F3B3FA83F303F1845303F5B8
:101C300084139B0000221A60FFF798FA04464FF0C5
:101C4000007393FAA3F33F4B19684FF0007393FAB4
:101C5000A3F3B3FA83F303F01F03012202FA03F3A1
:101C600019426BD0FFF782FA001B0228E7D9032044
:101C700087E0344AD36923F08053D361C2E74FF041
:101C8000807393FAA3F3B3FA83F303F1845303F558
:101C900084139B0000221A60FFF768FA05464FF094
:101CA000007393FAA3F3274B19684FF0007393FA6C
:101CB000A3F3B3FA83F303F01F03012202FA03F341
:101CC000194206D0FFF752FA401B0228E7D9032039
:101CD00057E01C494B6823F47413626A206A02437C
:101CE00013434B604FF0807393FAA3F3B3FA83F37B
:101CF00003F1845303F584139B0001221A60FFF75C
:101D000035FA04464FF0007393FAA3F30D4B1968AC
:101D10004FF0007393FAA3F3B3FA83F303F01F03B6
:101D2000012202FA03F3194206D1FFF71FFA001B42
:101D30000228E7D9032024E0002022E0002020E050
:101D4000208190100010024000700040012B1AD03A
:101D5000104B5B6803F48031226A914215D103F481
:101D60007013626A934212D100200AE0012070478A
:101D7000012006E0012004E0032002E0032000E04F
:101D8000002002B070BD0120FBE70120F9E701202F
:101D9000F7E700BF00100240164B5B6803F00C022F
:101DA000082A01D01448704703F470114FF47012E0
:101DB00092FAA2F2B2FA82F221FA02F20F49885C98
:101DC0000C4AD26A02F00F020F2191FAA1F1B1FA86
:101DD00081F1CA400A498A5C13F4803F05D0064B62
:101DE000B3FBF2F303FB00F07047064B03FB00F07C
:101DF000704700BF0010024000127A003033000824
:101E00002033000800093D00002800F0BE8070B5B6
:101E10000D460446614B1B6803F007038B420BD24F
:101E20005E4A136823F007030B431360136803F043
:101E300007038B4240F0AB80236813F0020F06D0FB
:101E4000574A536823F0F003A1680B43536023689B
:101E500013F0010F5AD06368012B2DD0022B40D014
:101E6000022292FAA2F24E4A1068022292FAA2F2DA
:101E7000B2FA82F202F01F02012101FA02F21042CC
:101E800000F0878046494A6822F0030213434B6002
:101E9000FFF76CF90646424B5B6803F00C0362687F
:101EA000B3EB820F32D0FFF761F9801B41F2883328
:101EB0009842F0D9032067E04FF4003292FAA2F280
:101EC000374A10684FF4003292FAA2F2B2FA82F264
:101ED00002F01F02012101FA02F20242D2D10120D6
:101EE00052E04FF0007292FAA2F22D4A10684FF0C1
:101EF000007292FAA2F2B2FA82F202F01F020121FB
:101F000001FA02F21042BDD101203DE0234B1B68D3
:101F100003F00703AB420AD9204A136823F00703F2
:101F20002B431360136803F00703AB4233D12368DC
:101F300013F0040F06D01A4A536823F4E063E168F3
:101F40000B435360236813F0080F07D0144A5368FB
:101F500023F46053216943EAC1035360FFF71CFF78
:101F60000F4B5B6803F0F003F02292FAA2F2B2FA90
:101F700082F2D3400B4AD35CD8400B4B18600B4B1A
:101F80001868FFF7AFF8002070BD012070470120EE
:101F9000FAE70120F8E70120F6E700BF0020024041
:101FA00000100240103300086C0100207401002072
:101FB000014B1868704700BF6C01002008B5FFF79F
:101FC000F7FF074B5B6803F4E0634FF4E06292FABB
:101FD000A2F2B2FA82F2D340024AD35CD84008BDE2
:101FE000001002400833000808B5FFF7E1FF074B77
:101FF0005B6803F460534FF4605292FAA2F2B2FAB3
:1020000082F2D340024AD35CD84008BD001002409F
:1020100008330008F0B583B00446036813F4803F2A
:1020200048D0914BDB6913F0805F40F0D4808E4B39
:10203000DA6942F08052DA61DB6903F08053019380
:10204000019B0125894B1B6813F4807F00F0C5803C
:10205000854B1B6A13F4407322D0626802F440720D
:102060009A421DD08048016A21F440764FF48033B3
:1020700093FAA3F2B2FA82F27D4F3A4492004FF003
:10208000010CC2F800C093FAA3F3B3FA83F33B4404
:102090009B0000221A60066211F0010F40F0B2802E
:1020A000714A136A23F4407361680B431362002D75
:1020B00040F0CF80236813F0010F06D06A4A136BFB
:1020C00023F00303A1680B431363236813F0020F8B
:1020D00006D0654A136B23F44033E1680B43136366
:1020E000236813F0040F06D05F4A136B23F44023D8
:1020F00021690B431363236813F0200F06D05A4A5B
:10210000136B23F01003E1690B431363236813F48B
:10211000003F06D0544A536823F48003A16B0B435D
:102120005360236813F0400F06D04F4A136B23F01F
:102130002003216A0B431363236813F0080F06D0B2
:10214000494A136B23F4401361690B4313632368FB
:1021500013F0100F06D0444A136B23F44003A16917
:102160000B431363236813F4007F06D03E4A536881
:1021700023F40003E16A0B435360236813F0800FDC
:1021800006D0394AD36A23F4F873616A0B43D362E9
:10219000236813F4807F06D0334AD36A23F478533C
:1021A000A16A0B43D362236813F4805F06D02E4AE2
:1021B000136B23F48073216B0B431363236813F4B5
:1021C000005F4DD0284A136B23F40073616B0B43FF
:1021D0001363002045E0002534E7244A136843F4E4
:1021E00080731360FEF7C2FF0646204B1B6813F492
:1021F000807F7FF42DAFFEF7B9FF801B6428F4D9F0
:1022000003202EE0FEF7B2FF064618E0022393FA01
:10221000A3F3154B596A022393FAA3F3B3FA83F39A
:1022200003F01F03012202FA03F30B427FF438AFDD
:10223000FEF79CFF801B41F2883398420ED80223A0
:1022400093FAA3F293FAA3F3002BDFD0064B196A9B
:10225000E1E7D36923F08053D3612BE7032000E04B
:10226000002003B0F0BD00BF00100240007000402D
:102270000081901000286FD010B50446436A33B92E
:102280004368B3F5827F05D00023C36102E00023D9
:10229000036143610023A36294F85D30002B52D0A8
:1022A000022384F85D302268136823F04003136032
:1022B000E368B3F5E06F4CD90022B3F5706F04D03A
:1022C000B3F5E06F01D00023A362636803F4827367
:1022D000A16801F404410B43216901F002010B43A1
:1022E000616901F001010B43A16901F400710B4325
:1022F000E16901F038010B43216A01F080010B43D1
:10230000A16A01F4005120680B430360638B03F062
:102310000403616A01F010010B43616B01F00801D5
:102320000B43E16801F470610B4321681A434A6072
:102330002268D36923F40063D3610020206601235F
:1023400084F85D3010BD84F85C302046FEF77EFDD9
:10235000A6E74FF48052B0E70120704710B4036A3B
:10236000046A24F001040462846924F0F00C4CEA4D
:10237000021223F00A030B438261036210BC704710
:1023800010B4036A23F0100303628469036A24F41F
:10239000704C4CEA023223F0A00343EA011382613D
:1023A000036210BC7047836823F070030B4343F053
:1023B000070383607047000090F83D30DBB2012BCB
:1023C00032D1022380F83D300268D36843F0010324
:1023D000D3600368174A934218D0B3F1804F15D0E9
:1023E000A2F59432934211D002F5806293420DD04F
:1023F00002F59632934209D002F54062934205D02D
:102400001A6842F001021A600020704799680A4A6F
:102410000A40062A0AD0B2F5803F09D01A6842F075
:1024200001021A60002070470120704700207047A9
:1024300000207047002C01400700010070477047E2
:1024400070477047704710B5044603681A6912F068
:10245000020F11D0DA6812F0020F0DD06FF00202F5
:102460001A610123037703689B6913F0030F79D086
:10247000FFF7E6FF0023237723681A6912F0040FA1
:1024800012D0DA6812F0040F0ED06FF004021A6155
:102490000223237723689B6913F4407F68D020468A
:1024A000FFF7CEFF0023237723681A6912F0080F85
:1024B00012D0DA6812F0080F0ED06FF008021A611D
:1024C000042323772368DB6913F0030F57D02046DA
:1024D000FFF7B6FF0023237723681A6912F0100F65
:1024E00012D0DA6812F0100F0ED06FF010021A61DD
:1024F000082323772368DB6913F4407F46D0204606
:10250000FFF79EFF0023237723681A6912F0010F5B
:1025100003D0DA6812F0010F3FD123681A6912F074
:10252000800F03D0DA6812F0800F3DD123681A695A
:1025300012F4807F03D0DA6812F0800F3BD1236859
:102540001A6912F0400F03D0DA6812F0400F39D147
:1025500023681A6912F0200F03D0DA6812F0200FF6
:1025600037D110BDFFF76BFF2046FFF76AFF81E709
:102570002046FFF764FF2046FFF763FF92E72046FF
:10258000FFF75DFF2046FFF75CFFA3E72046FFF75C
:1025900056FF2046FFF755FFB4E76FF001021A61BE
:1025A0002046FFF74BFFB8E76FF080021A61204624
:1025B00000F077F9BAE76FF480721A61204600F0F4
:1025C00071F9BCE76FF040021A612046FFF73AFF4D
:1025D000BEE76FF020021A61204600F061F9C0E703
:1025E00003682C4A90420ED0B0F1804F0BD0A2F578
:1025F0009432904207D002F58062904203D002F5F7
:102600009632904203D123F070034A681343214A63
:1026100090421AD0B0F1804F17D0A2F59432904278
:1026200013D002F5806290420FD002F596329042AC
:102630000BD002F54062904207D002F580629042D2
:1026400003D002F58062904203D123F44073CA683C
:10265000134323F080034A69134303608B68C3620A
:102660000B6883620B4B98420FD003F500639842CE
:102670000BD003F54063984207D003F5806398427E
:1026800003D003F58063984201D10B6903630123F2
:1026900043617047002C014060B310B5044690F8C8
:1026A0003D3013B3022384F83D30214651F8040B2A
:1026B000FFF796FF012384F8483084F83E3084F811
:1026C0003F3084F8403084F8413084F8423084F858
:1026D000433084F8443084F8453084F8463084F838
:1026E000473084F83D30002010BD80F83C30FEF7C4
:1026F000E1FBD7E70120704710B4846824F47F4CD5
:1027000042EA03220A4342EA0C02826010BC70478C
:1027100090F83C30012B76D010B50446012380F8A8
:102720003C30022380F83D3002689068374B03400C
:1027300093600B68602B4CD029D8402B54D00CD917
:10274000502B22D1CA6849682068FFF707FE502144
:102750002068FFF728FE002005E0202B0DD009D9C6
:10276000302B0AD00120012384F83D30002384F867
:102770003C3010BD0BB1102B05D119462068FFF776
:1027800012FE0020EFE70120EDE70120EBE7B3F5B3
:10279000805F34D0B3F5005F0CD1CB684A6889689C
:1027A0002068FFF7A9FF2268936843F48043936091
:1027B0000020D8E7702B24D1CB684A68896820684C
:1027C000FFF79AFF2268936843F077039360002035
:1027D000C9E7CA6849682068FFF7D2FD6021206810
:1027E000FFF7E1FD0020BEE7CA6849682068FFF7EF
:1027F000B5FD40212068FFF7D6FD0020B3E700209B
:10280000B1E70120AFE70220704700BF8800FEFF5C
:1028100090F83C20012A3ED030B40346012280F8D3
:102820003C20022280F83D200068426884681B4DED
:10283000A84203D005F50065A84203D122F4700236
:102840004D682A4322F070020D682A4342601A68DC
:102850001248824212D0B2F1804F0FD0A0F59430CE
:1028600082420BD000F58060824207D000F596309E
:10287000824203D000F54060824204D124F08004FB
:10288000896821439160012283F83D20002083F86C
:102890003C0030BC70470220704700BF002C014054
:1028A000704770477047026852E8003F23F4907306
:1028B00042E800310029F6D1026802F1080353E82A
:1028C000003F23F00103083242E800310029F3D130
:1028D000036E012B05D02023C367002303664366E4
:1028E0007047026852E8003F23F0100342E80031CD
:1028F0000029F6D1EFE7704708B5026852E8003FBB
:1029000023F0400342E800310029F6D120238367F9
:1029100000238366FFF7EFFF08BD704708B5406AE4
:102920000023A0F85A30A0F85230FFF7F6FF08BD98
:102930007047000070B504460268D369116890685A
:1029400040F60F0C13EA0C0F0AD113F0200F0DD034
:1029500011F0200F0AD0636E0BB3204698471EE09B
:1029600010F001051CD1A84E314219D1256E012D60
:1029700000F0A48013F4801F03D010F4800F40F007
:10298000308113F0800F03D011F0800F40F03081C0
:1029900013F0400F03D011F0400F40F0308170BDB4
:1029A00013F0010F09D011F4807F06D001201062CE
:1029B000D4F880200243C4F8802013F0020F09D01D
:1029C00045B1226802201062D4F8802042F004024F
:1029D000C4F8802013F0040F09D045B12268042008
:1029E0001062D4F8802042F00202C4F8802013F074
:1029F000080F0BD011F0200F00D13DB12268082044
:102A00001062D4F880200243C4F8802013F4006FD1
:102A10000CD011F0806F09D022684FF40060106272
:102A2000D4F8802042F02002C4F88020D4F880201E
:102A3000002AB4D013F0200F06D011F0200F03D0DD
:102A4000636E0BB120469847D4F8802023689B68BA
:102A500013F0400F02D112F0280F28D02046FFF7C4
:102A600022FF23689B6813F0400F1CD0226802F1FC
:102A7000080353E8003F23F04003083242E80031E6
:102A80000029F3D1236F53B1604A5A63206FFEF7D8
:102A900021FC002883D0206F436B98477FE72046B6
:102AA000FFF73BFF7BE72046FFF737FF77E720463E
:102AB000FFF733FF0023C4F8803070E713F0100FE6
:102AC0003FF458AF11F0100F3FF454AF10231362CE
:102AD00023689B6813F0400F4CD0226F13685B682B
:102AE0009BB2002B3FF45BAFB4F8581099427FF6CD
:102AF00056AFA4F85A309369202B30D0226852E8A0
:102B0000003F23F4807342E800310029F6D12268A7
:102B100002F1080353E8003F23F00103083242E8C2
:102B200000310029F3D1226802F1080353E8003F85
:102B300023F04003083242E800310029F3D120237A
:102B4000E36700232366226852E8003F23F0100366
:102B500042E800310029F6D1206FFEF799FBB4F866
:102B60005810B4F85A309BB2C91A89B22046FFF700
:102B7000DFFE14E7B4F85810B4F85A309BB2C91A03
:102B800089B2B4F85A309BB2002B3FF408AF002949
:102B90003FF405AF226852E8003F23F4907342E807
:102BA00000300028F6D1226802F1080353E8003F04
:102BB00023F00103083242E800300028F3D120233B
:102BC000E367002323666366226852E8003F23F030
:102BD000100342E800300028F6D12046FFF7A8FE97
:102BE000DDE64FF480131362204600F06FFAD6E65C
:102BF000A36E002B3FF4D3AE20469847CFE6204685
:102C0000FFF77AFECBE600BF200100041D29000873
:102C100010B50446836802691A4343691A43C369BD
:102C20001A4301680B6823F4164323F00C03134383
:102C30000B600268536823F44053C1680B43536030
:102C40008269036A1A4301688B6823F43063134373
:102C50008B6003687B4A93420DD07B4A93421CD021
:102C60007A4A93423AD07A4A93424AD0794A934276
:102C70005AD010231FE0784B1B6B03F00303032B88
:102C800009D8DFE803F002040664012313E00423FB
:102C900011E008230FE010230DE06F4B1B6B03F4D2
:102CA0004033B3F5003F54D013D8002B53D0B3F5C5
:102CB000803F52D10423E069B0F5004F69D0082B62
:102CC00000F2B980DFE803F092A890B7ABB7B7B7CE
:102CD000AE00B3F5403F42D10223ECE75E4B1B6BE5
:102CE00003F44023B3F5002F3BD005D8DBB3B3F595
:102CF000802F3AD10423DEE7B3F5402F37D10223EA
:102D0000D9E7554B1B6B03F44013B3F5001F30D0CC
:102D100005D883B3B3F5801F2FD10423CBE7B3F5D8
:102D2000401F2CD10223C6E74B4B1B6B03F440031F
:102D3000B3F5000F25D005D82BB3B3F5800F24D100
:102D40000423B8E7B3F5400F21D10223B3E70223F0
:102D5000B1E70823AFE70023ADE71023ABE710236B
:102D6000A9E70823A7E70023A5E71023A3E710237B
:102D7000A1E708239FE700239DE710239BE710238B
:102D800099E7082397E7002395E7102393E710239B
:102D900091E7082B49D8DFE803F0051F25482248B2
:102DA00048480900FFF70AF9002840D06268530834
:102DB00003EB4003B3FBF2F39BB2A3F110014FF618
:102DC000EF72914235D823F00F02C3F3420313434D
:102DD0002268D36000201BE0FFF706F9E4E7FEF766
:102DE000DBFFE1E71D48E1E71C4802E0FFF7E6F8FA
:102DF00018B3636800EB5300B0FBF3F080B2A0F1AE
:102E000010024FF6EF739A4219D82368D860002059
:102E100000236366A36610BDFFF7E6F8E8E7FEF758
:102E2000BBFFE5E74FF40040E3E70120F0E70020B7
:102E3000EEE70120ECE70120EAE70020E8E70120C7
:102E4000E6E700BF00380140004400400048004071
:102E5000004C0040005000400010024000127A0078
:102E6000436A13F0010F06D00268536823F400335D
:102E7000816A0B435360436A13F0020F06D0026865
:102E8000536823F48033C16A0B435360436A13F0E1
:102E9000040F06D00268536823F48023016B0B43B0
:102EA0005360436A13F0080F06D00268536823F496
:102EB0000043416B0B435360436A13F0100F06D07D
:102EC0000268936823F48053816B0B439360436AD9
:102ED00013F0200F06D00268936823F40053C16BEF
:102EE0000B439360436A13F0400F0AD002685368A3
:102EF00023F48013016C0B435360036CB3F5801F04
:102F00000BD0436A13F0800F06D00268536823F495
:102F10000023816C0B43536070470268536823F4AD
:102F2000C003416C0B435360EBE72DE9F8430546C2
:102F30000F4616469946DDF820802B68DC6937EA93
:102F400004040CBF01240024B44253D1B8F1FF3F64
:102F5000F3D0FEF70BF9A0EB090040452DD8B8F1EE
:102F6000000F2AD02B681A6812F0040FE5D0DA6936
:102F700012F4006FE1D04FF400621A622A6852E83E
:102F8000003F23F4D07342E800310029F6D12A68CB
:102F900002F1080353E8003F23F00103083242E83E
:102FA00000310029F3D12023AB67EB67C5F88030EF
:102FB000002385F8743003201DE02A6852E8003FA2
:102FC00023F4D07342E800310029F6D12A6802F1D7
:102FD000080353E8003F23F00103083242E80031C0
:102FE0000029F3D12023AB67EB67002385F8743009
:102FF000032000E00020BDE8F88330B583B004462C
:103000000023C0F88030FEF7B1F805462268126848
:1030100012F0080F0DD123681B6813F0040F16D1AE
:103020002023A367E3670020206684F8740003B0C0
:1030300030BD6FF07E430093034600224FF4001131
:103040002046FFF772FF0028E5D00320EFE76FF07E
:103050007E4300932B4600224FF480012046FFF769
:1030600064FF0028DCD00320E1E768B310B5044614
:10307000836F03B32423A3672268136823F001033B
:1030800013602046FFF7C4FD012813D0636ABBB963
:103090002268536823F4904353602268936823F0B6
:1030A0002A0393602268136843F0010313602046EB
:1030B000FFF7A3FF10BD80F87430FDF719FFD9E7C3
:1030C0002046FFF7CDFEE3E7012070477047B0F8D8
:1030D000403023F47C535B045B0CA0F840300020AC
:1030E000704784B0844601A880E80E000123ACF844
:1030F00040300020ACF84000ACF84400ACF8500080
:1031000004B07047830730B547D0541E002A3ED024
:10311000CAB2034601E0013C39D303F8012B9D07F5
:10312000F9D1032C2CD9CDB205EB05250F2C05EBDD
:10313000054535D9A4F1100222F00F0C03F1100E51
:10314000E6444FEA121C1A46156055609560D5603A
:1031500010327245F8D10CF1010214F00C0F03EBA0
:10316000021204F00F0C13D0ACF1040323F003039C
:103170000433134442F8045B9A42FBD10CF003047D
:103180002CB1C9B21C4403F8011B9C42FBD130BDD9
:1031900064461346002CF4D1F9E703461446C0E711
:1031A0001A46A446E0E700BF70B50F4B0F4DAB4287
:1031B000A3EB050607D0B610002455F8043B0134F4
:1031C0009847A642F9D800F083F8094D094B5E1BD9
:1031D000AB424FEAA60606D0002455F8043B013462
:1031E0009847A642F9D870BD403300084033000824
:1031F0004033000848330008704700BF704700BFE5
:10320000024B13B1024800F005B8704700000000FF
:1032100021320008002301461A46184600F014B86F
:1032200038B5074D074C2C1BA41005D0013C55F8B0
:10323000043D9847002CF9D1BDE8384000F04EB865
:103240004C330008483300082DE9F047DFF874A03C
:103250000646DAF8000098460F469146FFF7CCFF85
:10326000194B1C6824B365681F2D24DC5EB96B1CE8
:103270000235DAF80000636044F82570FFF7BEFFFE
:103280000020BDE8F08704EB85010123C1F8889098
:10329000D4F88821AB401A43022EC4F88821C1F823
:1032A0000881E4D1D4F88C211A43C4F88C21DEE7DC
:1032B000064C1C60D7E7DAF80000FFF79FFF4FF0DD
:1032C000FF30DEE7780100204006002044060020A1
:1032D000F8B500BFF8BC08BC9E467047F8B500BF03
:0832E000F8BC08BC9E467047D3
:1032E80031000000320000003300000041000000FF
:1032F8004F000000580000005500000000000000CA
:1033080000000000010203040000000000000000AB
:103318000102030406070809010203040506070859
:10332800090A0B0C0D0E0F10020304050607080905
:083338000A0B0C0D0E0F101022
:0833400001320008050300083A
:04334800DD0200089A
:10334C00000000000300000000000000000000006E
:10335C000000000001000000000000000000000060
:10336C000000000000000000000000000000000051
:10337C000000000000000000000000000000000041
:10338C000000000000000000000000000000000031
:10339C000000000000000000000000000000000021
:1033AC000000000000000000000000000000000011
:1033BC000000000000000000000000000000000001
:1033CC0000000000000000000000000000000000F1
:1033DC0000000000000000000000000000000000E1
:1033EC0000000000000000000000000000000000D1
:1033FC0000000000000000000000000000000000C1
:10340C0000000000000000000000000000000000B0
:10341C0000000000000000000000000000000000A0
:10342C000000000000000000000000000000000090
:10343C000000000000000000000000000000000080
:10344C000000000000000000000000000000000070
:10345C000000000000000000000000000000000060
:10346C000000000000000000000000000000000050
:10347C000000000000000000000000000000000040
:10348C00070000000F000000010000000000000019
:10349C00190B0E1D1D0E0B190309071D1D07090322
:1034AC0010190E1D1D0E19100100000000127A00DB
:0C34BC0001000000100000003C06002091
:04000005080010914E
:00000001FF
